:020000040800F2
:10000000080900209D01000823240008A31F000800
:1000100021240008B9070008DD2B000800000000BB
:10002000000000000000000000000000D9260008C9
:10003000BB0700080000000025240008DB2600089C
:10004000B7010008B7010008B7010008B7010008B0
:10005000B7010008B7010008B7010008B7010008A0
:10006000C5070008B7010008B7010008B70100087C
:10007000B7010008B7010008B7010008B701000880
:10008000B7010008B7010008B7010008B701000870
:10009000B7010008B7010008B7010008B701000860
:1000A000B7010008B7010008B7010008B701000850
:1000B000B7010008B7010008B7010008B701000840
:1000C000B7010008B7010008B7010008B701000830
:1000D000B7010008B7010008B7010008B701000820
:1000E000BD070008B7010008B7010008B701000804
:1000F000B7010008B7010008B7010008B701000800
:10010000B7010008B7010008B7010008B7010008EF
:10011000B7010008B7010008B7010008B7010008DF
:10012000B7010008B7010008B7010008B7010008CF
:10013000B7010008B7010008B7010008B7010008BF
:10014000B7010008B7010008B7010008B7010008AF
:10015000B7010008B7010008B7010008B70100089F
:10016000B7010008B7010008B7010008B70100088F
:10017000B7010008B7010008B7010008000000003F
:10018000B7010008B7010008DFF80CD000F070FAE2
:10019000004800470D3B000808090020064880473A
:1001A00006480047FEE7FEE7FEE7FEE7FEE7FEE75C
:1001B000FEE7FEE7FEE7FEE74127000889010008A9
:1001C0002DE9F05F0546002092469B46884606468C
:1001D000814640241BE0284641464746224600F01F
:1001E00074F853465A46C01A914110D31146184626
:1001F000224600F05BF82D1A67EB01084F462246B5
:100200000120002100F052F817EB00094E41201E9A
:10021000A4F10104DFDC484631462A46434600F09B
:1002200000B830BCBDE8C09FD2B201E000F8012B9D
:10023000491EFBD270470022F6E710B513460A4666
:1002400004461946FFF7F0FF204610BD421C10F887
:10025000011B0029FBD1801A704700F0004230F0EA
:1002600000400AD0C10D01F56071C0F3160042EAEA
:100270000151C208400711437047002001467047F2
:1002800030B50B46014600202022012409E021FA66
:1002900002F59D4205D303FA02F5491B04FA02F563
:1002A0002844151EA2F10102F1DC30BD202A04DB36
:1002B000203A00FA02F1002070479140C2F1200379
:1002C00020FA03F3194390407047202A04DB203AB8
:1002D00021FA02F00021704721FA02F3D040C2F166
:1002E000200291400843194670472DE9FE4F804691
:1002F00081EA0300C00F0C46009021F0004123F07A
:100300000045B8EB0200A94105D24046214690467F
:100310001C460B46024623F00040104347D0270DF1
:10032000C7F30A00C3F30A510290401A0190402813
:100330006BDAC3F3130040F4801B0098924620B19F
:100340000023D2EB030A63EB0B0B01985946C0F173
:1003500040025046FFF7AAFF06460D465046594652
:10036000019A00F097F910EB08006141002487EA38
:10037000115284EAE7731A4340D0009A62B3019A9B
:10038000012A4FEA075215DC001B61EB02014FF016
:10039000004202EA0752CDE90042001C41F58011FB
:1003A00032462B4600F097F903B000F045B84046BE
:1003B0002146F9E7001B61EB0201001C41F58013A7
:1003C00000185B412018A2F5001747EB030140EA33
:1003D000D570B6196D4111E06D084FEA360645EA51
:1003E000C0754FEA0752001B61EB0201001C41F58A
:1003F000801149084FEA30000019514132462B461E
:1004000003B000F01CB800F057B90098012240007A
:100410000023D0EB020263EBE073009821464FEA21
:10042000E074B8EB000061EB0401E9E783F00043FE
:100430005BE781F0004158E730BCBDE8C08F30BCBD
:10044000BDE8C04FFFF7DFBF2DE9FE4F81EA03048F
:1004500004F0004421F0004100944FF0000B23F021
:10046000004350EA01045ED052EA03045BD0C3F3B8
:100470000A54C1F30A552C44A4F2F3340194A0FBAE
:100480000254C1F3130141F48011C3F3130343F485
:10049000801301FB024400FB034E840A970A44EADE
:1004A000815447EA8357A4FB076802958D0A05FB30
:1004B00007854FEA932C04FB0C542705029D4FEA55
:1004C000065847EA1637B5EB08056EEB070C870EA2
:1004D000920E47EA811742EA8312A7FB0201B6EBAC
:1004E0000B0164EB00042B0D43EA0C335E1844EB64
:1004F0001C50DA465146E7FB0201C5F313044FEAEC
:100500000B3343EA14534FEA0432019C43EA0603D7
:10051000A4F10C040294009CCDE900B400F0DBF8D7
:1005200003B000F003B800200146F9E730BCBDE895
:10053000C08F2DE9F04D81EA030404F0004B21F057
:10054000004514464FF0000A23F0004150EA05022E
:1005500020D054EA01021DD0C5F30A570246C5F364
:100560001303C1F31300C1F30A5640F4801543F49A
:100570008013A7EB0608101BD64608F2FD3873EB74
:10058000050002D308F1010801E092185B41B8F1BF
:10059000000F03DA00200146BDE8F08D00204FF483
:1005A0008011064684460EE0171B73EB050705D342
:1005B000121B63EB050306434CEA010C49084FEAA2
:1005C000300092185B4150EA0107EDD152EA030076
:1005D00012D082EA040083EA0501084305D0101B0B
:1005E000AB4106D20122002306E000224FF0004377
:1005F00002E06FF0010253101AEB06004CEB0851B9
:1006000010EB0A0041EB0B01BDE8F04D00F054B8CF
:10061000C1F30A52C1F3130140F2FF3341F48011D8
:100620009A4202DA00200146704740F233439A4270
:10063000A2F2334202DC5242FFF747BEFFF736BE5A
:1006400030B5041E71F1000404DB4FF00044404259
:1006500064EB0101141E73F1000405DB1C464FF02E
:100660000043524263EB0403994208BF904230BDFD
:10067000064C074D06E0E06840F0010394E80700EF
:1006800098471034AC42F6D3FFF782FDA03E000835
:10069000C03E0008202A06DBCB17203A41FA02F0C0
:1006A00043EAE07306E041FA02F3D040C2F12002CF
:1006B000914008431946704710B5141E73F10004A9
:1006C00008DA401C41F1000192185B411A4301D144
:1006D00020F0010010BD2DE9F04D92469B4611B16E
:1006E000B1FA81F202E0B0FA80F220329046FFF7D0
:1006F000DDFD04460F4640EA0A0041EA0B0153467D
:100700005A46084313D0114653EA010019D0C8F1E4
:1007100040025046FFF7D9FD05460E465046594661
:100720004246FFF7C3FD084305D0012004E0204600
:100730003946BDE8F08D0020054346EAE0762C43BB
:1007400037430A986305E40AA0EB08000022FD0A7B
:1007500044EA47540A3002D500200146E9E7010582
:1007600010196941DDE9084500196941BDE8F04DFE
:10077000A2E7000000B587B014216846FFF75BFDD3
:100780000B48C16C41F01001C164C06C694600F0B7
:100790001000059010200090012001900020029090
:1007A00002200390034800F0FBF807B000BD0000F2
:1007B0000010024000100048FEE770474FF4006050
:1007C00000F0E2B8042000F0DFB8000070B5044685
:1007D00000F0D0F90546601C02D00448406804448B
:1007E00000F0C8F9401BA042FAD370BD0000002001
:1007F0002DE9F84F00230126DFF834C10F2791E0DF
:1008000006FA03F414EA01027ED023F003056544DE
:10081000AA46D5F808909D074FEA157E07FA0EF50F
:1008200005EA090B0095B0F1904F05D0414DA84263
:1008300005D14FF0010822E04FF000081FE03E4DC7
:10084000A84202D14FF0020819E03C4DA84202D163
:100850004FF0030813E03A4DA84202D14FF00408CC
:100860000DE0384DA84202D14FF0050807E0364DA3
:10087000A84202D14FF0060801E04FF0070808FA3D
:100880000EF8D84524D1DFF8C480D8F8009029EAC2
:100890000209C8F8009008F10408D8F8009029EA85
:1008A0000209C8F8009008F10408D8F8009029EA75
:1008B0000209C8F8009008F10408D8F800509543E0
:1008C000C8F80050009ADAF808509543CAF8085062
:1008D000D0F800804FEA4309032202FA09F248EAFD
:1008E0000208C0F80080DD0800EB8505AA46D5F8AF
:1008F00020804FEA43794FEAD96907FA09F528EAD7
:100900000508CAF8208000E00BE085689543856003
:100910004568A5434560C5689543C560C26AA24362
:10092000C2625B1C31FA03F27FF46AAF00F010B8C8
:10093000000001400004004800080048000C004886
:10094000001000480014004800180048000401404E
:1009500018BCBDE8E08F000010B5B0F5006F0AD0FC
:1009600004280BD1FFF706FF0122BDE8104010213B
:10097000034800F0FAB803490120087010BD0000D8
:100980000010004810000020044910B50A68024217
:1009900002D00860FFF7E0FF10BD00001404014022
:1009A0002DE9F84FDFF898B100234FF0010C4FF01C
:1009B000030A4FF00F090BF1040EB9E00CFA03F42F
:1009C000224070D04D68022D01D0122D0ED1DD08CD
:1009D00000EB8508D8F820505E07F70E09FA07F6F5
:1009E000B5430E69BE402E43C8F8206007685E001C
:1009F00091F804800AFA06F508F00308AF4308FAF4
:100A000006F848EA0708C0F800804F68012F05D0B3
:100A1000022F03D0112F01D0122F13D1D0F808804C
:100A2000CF6828EA0508B74047EA08078760D0F88A
:100A300004800F7928EA0408C7F300179F4047EAAB
:100A400008074760D1F804806FEA0807BF0706D19E
:100A5000C76AA743C8F3C0049C403C43C462C4684F
:100A6000AC438D68B5402543C5604C68E4005ED555
:100A7000344C256E45F001052566246E23F00305F0
:100A800004F001040094304C2E19B4689D072F0F18
:100A900009FA07F5AC43B0F1904F05D02B4DA842B1
:100AA00004D101251CE042E0002519E0284DA842B0
:100AB00001D1022514E0274DA84201D103250FE002
:100AC000254DA84201D104250AE0244DA84201D1B8
:100AD000052505E0224DA84201D1062500E00725A5
:100AE000BD402543B560DBF800405D464E68944349
:100AF000F60300D514432C60DEF8004075464E68BE
:100B00009443B60300D514432C600D4D08352C6872
:100B10004E689443F60200D514432C60084D0C3502
:100B20002C684E689443B60200D514432C605B1CBD
:100B30000A6832FA03F57FF441AF00F013B8000001
:100B40000004014000100240000001400004004881
:100B500000080048000C004800100048001400483D
:100B60000018004818BCBDE8E08F0AB181617047E9
:100B700081627047014880687047000000000020D3
:100B800090F84120202A24D190F84020012A20D03A
:100B9000012280F84020242280F841200268136856
:100BA00023F0010313600268136823F48053136079
:100BB000026813680B43136001680A6842F001027F
:100BC0000A60202180F84110002180F8401008467A
:100BD00070470220704790F84120202A22D190F8D7
:100BE0004020012A1ED0012280F84020242280F8D3
:100BF00041200268136823F0010313600268136840
:100C000023F4706343EA0121116001680A6842F02D
:100C100001020A60202180F84110002180F8401074
:100C2000084670470220704770B5040004D094F85D
:100C30004100002510B106E0012070BD84F840504D
:100C4000204600F0B3F9242084F8410020680168B0
:100C500021F0010101606068216820F07060086186
:100C60002068816821F400418160E0680128A06863
:100C700007D040F4044021688860E068022803D06F
:100C800006E040F40040F6E721684FF40060486059
:100C900020684168114A114341602068C16821F40D
:100CA0000041C160D4E904010843A16940EA012080
:100CB0002168C860D4E907010843216808602068FA
:100CC000016841F0010101606564202084F8410061
:100CD000256384F84250002070BD000000800002AF
:100CE0002DE9FF4F83B00446DDE9108790F84100FD
:100CF000DDF848909A469346202874D15FEA0800B0
:100D000014D09FB194F8400001286CD0012084F8E1
:100D10004000FFF72FFF0646012200901923D10360
:100D2000204601F00DFA002871D103E04FF4007065
:100D300060646CE0222084F84100402084F8420086
:100D400000256564C4F8248067856563CDE9009655
:100D500053465A462046049901F078F910B184F8B8
:100D6000405054E0618D3548FF274FF080784FF0B8
:100D7000007AFF2904D927853A464346009005E0CA
:100D8000618D2185009094F82820534620460499CF
:100D900001F0C0F94B46002204212046009601F0E4
:100DA000CFF9A0BB2068406A616A0870606A401C85
:100DB0006062208D401E81B22185608D401E60855D
:100DC000608DD8B1D1B94B460022802120460096D3
:100DD00001F0B6F9D8B9608DFF2805D927853A46C4
:100DE0004346009506E026E0608D2085009594F846
:100DF000282053462046049901F08CF9608D002884
:100E0000C8D132464946204601F0C6F918B1012042
:100E100007B000F017B821682020C86121684A682F
:100E2000074B1A404A6084F8410084F8425084F825
:100E300040500020ECE70220EAE700000024008098
:100E400000E800FE30BCBDE8C08F00002DE9FF4F78
:100E500083B00446DDE9108790F84100DDF8489042
:100E60009A469346202871D15FEA080014D09FB1BA
:100E700094F84000012869D0012084F84000FFF771
:100E800079FE0646012200901923D103204601F085
:100E900057F900286ED103E04FF40070606469E0F8
:100EA000212084F84100402084F842000025656438
:100EB000C4F8248067856563CDE9009653465A4699
:100EC0002046049901F0F4F810B184F8405051E044
:100ED000608DFF274FF080784FF0007AFF2804D90B
:100EE00027853A464346009505E0608D20850095AC
:100EF00094F8282053462046049901F00BF9324615
:100F00004946204601F06EF9A0BB606A216800786E
:100F10008862606A401C6062608D401E6085208D22
:100F2000401E80B22085618DD9B1D0B94B460022D8
:100F300080212046009601F003F9D8B9608DFF2882
:100F400005D927853A464346009506E026E0608DA0
:100F50002085009594F8282053462046049901F0F6
:100F6000D9F8608D0028CAD132464946204601F0A2
:100F700013F918B1012007B000F014B8206820213F
:100F8000C16120684268064B1A40426084F84110F3
:100F900084F8425084F840500020ECE70220EAE751
:100FA00000E800FE30BCBDE8C08F000010B586B080
:100FB000044614216846FFF73EF91249206888422A
:100FC0001ED1114CE06C40F00200E064E06C694618
:100FD00000F002000590C020009012200190012036
:100FE000029003200390042004900848FFF7D8FCE7
:100FF000A06D40F40010A065A06D00F400100590F5
:1010000006B010BD0054004000100240000400482B
:1010100002488168426811448160704700000020E6
:1010200010B50024032000F071F8002000F008F84B
:1010300008B1012401E000F025F8204610BD0000B1
:1010400070B50E4E05460024706898B14FF47A7161
:10105000B1FBF0F00A490968B1FBF0F000F095FE31
:1010600040B9102D06D200222946501E00F02EF85D
:10107000356000E00124204670BD00000000002023
:101080000C000020094808B5016E41F0010101661D
:10109000016E01F001010091816D41F08051816587
:1010A000806D00F08050009008BD000000100240EC
:1010B000002809DB00F01F02012191404009800057
:1010C00000F1E020C0F8001170470000F0B40E4BB2
:1010D0001B680C46C3F30223C3F10705042D00D996
:1010E0000425191D072901D2002300E0DB1E01267B
:1010F00006FA05F1491E214099409E40761E164091
:101100003143F0BC01F090BD0CED00E0064900F069
:10111000070208684FF6FF03184040EA0220034A1E
:1011200010430860704700000CED00E00000FA0575
:101130000B490A6822F00702921C0A6009490A68F2
:1011400042F004020A60012807D040BF20BF20BF40
:10115000086820F004000860704730BFF8E700001E
:101160000070004010ED00E00248006800F4C0602C
:1011700070470000007000402DE9F84F044600273A
:101180000088E54D3E46010504F1200B1DD5606E3B
:1011900078B1B0F5800F11D0B0F5000F04D0B0F5E4
:1011A000400F22D001270FE0E86840F48030E8606B
:1011B0001BE00021201D01F037F903E00021584613
:1011C00001F0C8F9070010D03E462088C00426D59B
:1011D000A06EC0B1B0F1807F1AD0B0F1007F0DD009
:1011E000B0F1407F19D0012718E0D5F88800616E72
:1011F00020F440000843C5F88800E6E7E86840F4BA
:101200008030E86009E00021201D01F00DF903E0C5
:101210000021584601F09EF90746F7B13E46206886
:1012200080033AD5A86D4FF00008C00009D4A86D1E
:1012300040F08050A865A86D4FF0010800F0805084
:101240000090DFF8D8A2DAF8001041F48071CAF8F3
:101250000010FFF78FFC814610E0D5F88800A16EE2
:1012600020F040700843C5F88800D8E7FFF782FCFB
:10127000A0EB0900022801D9032705E0DAF80000F5
:10128000C005F3D5002F7CD04FEA0706B8F1000F58
:1012900003D0A86D20F08050A8652078C00707D043
:1012A000D5F88800A16B20F003000843C5F888003A
:1012B0002078800707D5D5F88800E16B20F00C0076
:1012C0000843C5F888002078400707D5D5F888007E
:1012D000216C20F030000843C5F888002078000712
:1012E00007D5D5F88800616C20F0C0000843C5F828
:1012F00088002078C00607D5D5F88800A16C20F4B6
:1013000040700843C5F888002078800607D5D5F8D6
:101310008800E16C20F440600843C5F8880020880C
:10132000800507D5D5F88800E16D20F440200843FA
:10133000C5F888002088400507D5D5F88800216EBB
:1013400020F440100843C5F888002078400607D5EF
:10135000D5F88800216D20F440500843C5F8880076
:101360002078000607D5D5F88800616D20F440404C
:101370000843C5F888002088C00509D5D5F888003D
:1013800000E01CE0A16D20F440300843C5F888005F
:1013900020884FF0006780044FF080684FD5D5F863
:1013A0008800E16E20F040600843C5F88800E06ED8
:1013B000B8423CD1E86840F48010E8603FE0D5F8DE
:1013C000900010F4407015D0D4F88410814211D0F0
:1013D000D5F89000D5F8901020F4407041F4803199
:1013E000C5F89010D5F8901021F48031C5F8901010
:1013F000C5F89000C00710D0FFF7BCFB074641F2CC
:10140000883906E0FFF7B6FBC11B494501D9032621
:101410003CE7D5F890008007F4D5D5F89000D4F8D3
:10142000841020F440700843C5F890002EE7404532
:1014300005D10121201D00F0F7FF00B1064620680C
:10144000000317D5D5F88800216F20F040600843CD
:10145000C5F88800206FB84204D1E86840F48010D5
:10146000E86007E0404505D10121201D00F0DCFFC8
:1014700000B106462068400317D5D5F88800616F93
:1014800020F040600843C5F88800606FB84204D17E
:10149000E86840F48010E86007E0404505D101218C
:1014A000201D00F0C1FF00B10646208840041AD577
:1014B000D5F88800A16F20F040500843C5F8880097
:1014C000A06FB0F1805F03D0B0F1005F05D00AE0FB
:1014D0000221201D00F0A8FF03E00221584601F080
:1014E00039F800B106462088000407D5D5F88800F1
:1014F000E16F20F080400843C5F888002068C003F1
:1015000007D555F8880FD4F8801020F00040084324
:101510002860304600F004B800100240007000401F
:1015200018BCBDE8E08F00002DE9F0470F4605002C
:1015300058D0404E306800F00700B84209D23068F9
:1015400020F0070038433060306800F00700B842F0
:1015500048D12878384CC0072CD06868032811D0AF
:10156000022812D0216898B1490500293ADAA16809
:1015700021F003010143A160FFF7FCFA804641F22C
:10158000883910E021688901EFE721688903ECE7D9
:101590008907EAE7FFF7EEFAA0EB0801494502D90F
:1015A0000320BDE8F087A068696800F00C00B0EB8C
:1015B000810FEFD12878800705D5A068A96820F0B1
:1015C000F0000843A060306800F00700B8420BD973
:1015D000306820F0070038433060306800F00700C2
:1015E000B84201D00120DCE72878400705D5A06883
:1015F000E96820F4E0600843A0602878000706D579
:10160000A068296920F4605040EAC100A06000F0A1
:10161000CFF8A168094AC1F30311515C01F01F0121
:10162000C8400749086007480068BDE8F047FFF771
:1016300007BD00000020024000100240583E000894
:101640000C000020000000200F2202600C4A93686A
:1016500003F003034360936803F0F003836093682F
:1016600003F4E063C36092684FF4E06303EAD202DC
:1016700002610448006800F007000860704700003D
:10168000001002400020024010B51F2101603549C2
:101690000A6853034FF0000202D54FF4A02304E080
:1016A0000B68DB0303D54FF48033436000E04260F6
:1016B0000B68DC074FF0010301D0836100E0826119
:1016C0004C68C4F30724C4610C6804F0F00404629D
:1016D0000C68E40503D54FF48074C46000E0C26078
:1016E0004C68C4F304640461D1F89040640702D5E7
:1016F0000524846006E0D1F89040E40701D08360BF
:1017000000E08260D1F89440E40701D0436100E03A
:10171000426142620A68D20102D50222826200E07E
:101720008362CA6802F00302C262CA68C2F302128C
:10173000521C0263CA68C2F306224263CA68C2F33B
:101740004152521C5200C263CA68C2F34162521C29
:1017500052000264C968890301D5112100E0072104
:10176000816310BD00100240054806490068896881
:10177000054AC1F30221515C01F01F01C8407047C6
:101780000C00002000100240983E00080548064961
:1017900000688968054AC1F3C221515C01F01F014C
:1017A000C84070470C00002000100240983E00081E
:1017B00070B52549002318468A68CC6812F00C02DF
:1017C00004F00306214C4FEA640509D00C2A05D029
:1017D000042A32D0082A00D1284670BD012E10D12B
:1017E0000B681B0704D4D1F89430C3F3032302E041
:1017F0000B68C3F30313164E56F82330DAB10C2AE4
:10180000EBD1C86800F00300022818D0032818D0D4
:101810001846CA68CB68C2F30212C3F306234343D7
:10182000521CB3FBF2F2C868C0F34160401C400098
:10183000B2FBF0F070BD184670BD204670BD20466A
:10184000E7E72846E5E70000001002400024F40026
:10185000683E00082DE9F84304006FD0FE4DA868EB
:1018600000F00C06E86800F003072078C00664D595
:1018700076B10C2E01D1012F0AD0A069002828686A
:101880007AD040F001002860FFF774F980465DE0EF
:101890002868800702D5A0690028DED0216A286860
:1018A000000703D5286800F0F00004E0D5F89400A4
:1018B000F02202EA1010814216D9084600F0CEFE4E
:1018C00000283BD1286840F0080028602868216A79
:1018D00020F0F000084328606868E16920F47F4048
:1018E00040EA0120686016E0286840F0080028609F
:1018F0002868216A20F0F000084328606868E169E0
:1019000020F47F4040EA0120686026B9206A00F098
:10191000A5FE0028D5D1FFF74BFFA968CF4AC1F338
:101920000311515C01F01F01C840CD490860CD484A
:101930000068FFF785FB00287ED12EE0CAE000BFDB
:10194000FFF718F9A0EB0800022876D8286880076E
:10195000F6D5286840F0080028602868216A20F041
:10196000F000084328606868E16920F47F4040EA9D
:101970000120686011E0FFE720F001002860FFF718
:10198000F9F8804606E000BFFFF7F4F8A0EB080086
:101990000228DAD828688007F6D42078C00740D01B
:1019A000082E18D00C2E01D1032F14D06068B0F58A
:1019B000803F17D0B0F5A02F286817D020F48030D2
:1019C0002860286820F4802028606068E0B1FFF774
:1019D000D1F8804614E02868800322D5606800288A
:1019E00078D01EE0286840F48030EDE740F4802095
:1019F0002860F7E7FFF7BEF8A0EB08006428A4D83A
:101A000028688003F6D50CE0FFF7B4F8804605E0BF
:101A1000FFF7B0F8A0EB0800642896D82868800388
:101A2000F6D4207880073BD5042E11D00C2E01D19E
:101A3000022F0DD0E06801E092E1F1E00028286873
:101A40001ED040F480702860FFF794F807460CE041
:101A5000286840050CD5E0680028C1D008E000BF28
:101A6000FFF788F8C01B022893D828684005F7D5EF
:101A70006868217C20F0F85040EA016068600FE05F
:101A800020F480702860FFF775F8074605E000BF76
:101A9000FFF770F8C01B0228B1D828684005F7D4BA
:101AA0002078000729D560690028D5F8940012D065
:101AB00040F00100C5F89400FFF75CF8074604E029
:101AC000FFF758F8C01B022899D8D5F89400800772
:101AD000F6D512E000E120F00100C5F89400FFF710
:101AE00049F8074605E000BFFFF744F8C01B02288D
:101AF00085D8D5F894008007F6D42078400766D5BD
:101B0000A86D0027C00008D4A86D40F08050A865DB
:101B1000A86D012700F08050009053480168C90566
:101B200012D40168814641F480710160FFF722F808
:101B3000804605E0FFF71EF8A0EB080002286FD8EA
:101B4000D9F80000C005F5D5A068012816D00528F1
:101B5000D5F8900017D020F00100C5F89000D5F816
:101B6000900020F0040000BFC5F89000A06841F28A
:101B70008839C0B1FEF7FEFF80460FE0D5F890002F
:101B800040F00100F0E740F00400C5F89000F5E7F0
:101B9000FEF7F0FFA0EB0801494541D8D5F89000C9
:101BA0008007F5D50EE0FEF7E5FF804606E000BFB2
:101BB000FEF7E0FFA0EB0801494531D8D5F89000C9
:101BC0008007F5D41FB1A86D20F08050A865A06AE9
:101BD00038B302280AD00C2E7ED0286820F08070FE
:101BE0002860286810F0205F77D0AAE0E868E26AF1
:101BF00000F0030191422BD1216B00F0700209012A
:101C00001039914224D1626B00F4FE41B1EB022FF6
:101C10001ED1A26B00F40031072A03D0012202E09A
:101C20009DE089E00022914212D1A18F00F4C00210
:101C300049084905A1F50011914209D194F84010D5
:101C400000F0C06049084906A1F1007181425CD0F2
:101C50000C2E41D0286809E000100240583E0008D0
:101C60000C000020000000200070004040017ED4E5
:101C70002868C0007BD4286820F080702860FEF7B8
:101C800079FF064605E000BFFEF774FF801B0228BF
:101C900065D828688001F7D4D4E90B016FF00F02F2
:101CA00002EB01110843A18F5204490802EB415194
:101CB000626B41EA0221084394F840104FF07E42E3
:101CC000490802EB41610843A16B090940EA414020
:101CD000E968284A114001E049E02EE00843E86045
:101CE000286840F080702860E86840F08070E86004
:101CF000FEF740FF044604E0FEF73CFF001B02280D
:101D00002DD828688001F7D52FE0286880012CD4D1
:101D1000286840F080702860E86840F08070E860D3
:101D2000FEF728FF044604E0FEF724FF001B02280C
:101D300015D828688001F7D517E0E86820F003007F
:101D4000E860E8680C490840E860FEF713FF0446C5
:101D500008E000BFFEF70EFF001B022802D9032097
:101D6000BDE8F88328688001F4D40020F8E701205A
:101D7000F6E700008C809DF9FFFFEEFE4FF0E020BB
:101D8000016941F002010161704710B5401EB0F1D8
:101D9000807F01D3012010BD4FF0E02460610F214E
:101DA000601700F041FF0020A061072020610020A3
:101DB00010BD4FF0E020016921F002010161704780
:101DC00070B5040017D0242060672068016821F0F6
:101DD00001010160206800250560206845602068D9
:101DE0008560204600F03CF8E5676567A56784F8E4
:101DF0007050002070BD012070BD10B5040002D0ED
:101E0000606F10B107E0012010BD002084F8700061
:101E1000204600F039F8242060672068016821F02E
:101E200001010160204600F03DFD0128ECD0606A10
:101E300010B1204600F0A6FC2068416821F49041D2
:101E400041602068816821F02A0181602068016872
:101E500041F0010101602046BDE8104000F0F6BCF1
:101E60000068074988420AD10648016E21F4804182
:101E700001664FF4C0614FF09040FEF7B9BC704767
:101E8000003801400010024010B586B0044614210D
:101E90006846FEF7D0F913492068884220D11248DD
:101EA000016E41F480410166016E01F480410591AB
:101EB000C16C41F00101C164C06C694600F00100D1
:101EC00005904FF4C0600090022001900020029025
:101ED00003200390072004904FF09040FEF760FD30
:101EE00006B010BD00380140001002402DE9F84353
:101EF0000446406F1F4616460D4620284FD1CDB1EF
:101F0000C6B194F87000012849D0012084F870000F
:101F10004FF00008C4F87C8021206067FEF72AFE9D
:101F2000A4F850608146A4F85260A068B0F5805FC4
:101F300003D004E00120BDE8F883206928B12E46D3
:101F40005FF0000584F8708010E00026FAE7802139
:101F5000204600F0F1FDB8B9C6B116F8010B2168B2
:101F60000885B4F85200401EA4F85200B4F852009C
:101F70004B464FF0000200970028E8D14FF0400197
:101F8000204600F0D9FD30B10320D4E735F8020B2C
:101F9000C0F30800E3E7202060670020CBE70220C1
:101FA000C9E7FEE701688A69D243920701D400229B
:101FB0008A6200688169C943C90703D0816941F019
:101FC00001018161704700002DE9F041044600687D
:101FD00090460E468069C043C00633D400252027B2
:101FE00020688069C043800615D5701CF8D0FEF7C4
:101FF000C1FDA0EB0800B04201D8002EF0D154F88A
:10200000440F40F0200044F804096770A570257063
:102010000120BDE8F08121681020C8612068C761F7
:102020002046FFF7BFFF54F8440B4168064A1140B1
:102030004160206840F0040044F820096777A577E4
:102040002577E5E70020E4E700E800FE2DE9F84306
:1020500004461646DDE9089714489846DAB200901F
:102060000023204600F056F83A464946204600F044
:10207000B9F8B8B9F5B2B8F1010F08D02168300A43
:1020800088623A464946204600F0ACF850B92068CC
:1020900085624B46002240212046009700F050F810
:1020A000002800D00120BDE8F88300000020008057
:1020B0002DE9F8430446164615489846DDE9089789
:1020C000DAB2C3020090204600F024F83A464946AE
:1020D000204600F087F8B8B9F5B2B8F1010F08D082
:1020E0002168300A88623A464946204600F07AF86C
:1020F00050B9206885624B46002280212046009717
:1021000000F01EF8002800D00120BDE8F883000090
:1021100000200080F0B50568059C68684FF4806673
:10212000064FC1F3090106EA545641EA02413E4313
:102130001943B043214308436860F0BDFF63FF03C8
:102140002DE9F0411D4617460E460446DDF818807D
:1021500008E0681C06D0FEF70DFDA0EB0800A842C1
:102160000BD855B12068806936EA000012D00020F3
:10217000B842EED00020BDE8F08154F8440F40F0A2
:10218000200044F80409202060700020A070207016
:102190000120F0E70120EBE770B516460D46044636
:1021A0000DE0324629462046FFF70EFF08B1012018
:1021B00070BDFEF7DFFC801BA84207D835B1206850
:1021C0008069C0438006ECD4002070BD54F8440FF1
:1021D00040F0200044F80409202060700020A07026
:1021E0002070E4E770B516460D4604460FE032460F
:1021F00029462046FFF7E8FE08B1012070BD681CA3
:1022000005D0FEF7B7FC801BA84207D835B120687F
:102210008069C0438007EAD4002070BD54F8440FA1
:1022200040F0200044F80409202060700020A070D5
:102230002070E2E72DE9F04786B014216846FDF7EB
:10224000FAFF4D48C16C41F01001C164C16C01F04E
:1022500010010591C16C41F00401C164C16C01F031
:1022600004010591C16C41F08001C164C16C01F0B1
:1022700080010591C16C41F00201C164C16C01F0A3
:1022800002010591C16C41F00801C164C16C01F00B
:1022900008010591C16C41F00101C164C06CDFF817
:1022A000DC9000F001004FF294740590002221466A
:1022B0004846FEF75AFCDFF8C88000220821404655
:1022C000FEF753FCDFF8BCA041F2070700223946B5
:1022D0005046FEF74AFC0125CDE900450024029452
:1022E000694648460394FEF75BFB08260096CDE955
:1022F0000154694640460394FEF752FB0097CDE92E
:102300000154694650460394FEF74AFBE8020090E8
:102310000227CDE9017469464846CDE90345FEF739
:102320003FFB4FF44060CDE900070320CDE90240B8
:10233000694604965046FEF733FB134D4FF4604058
:10234000CDE90005694602945046FEF729FB4FF49B
:10235000E060CDE900050D4D694602942846FEF780
:102360001FFB3003CDE90004694628460294FEF7BE
:1023700017FB06B0BDE8F0870010024000100048CF
:10238000000800480004004800001110000C00483C
:102390000E4810B50C4901600D4941600021012231
:1023A000C0E90212016141618161C1610162FEF710
:1023B0003BFC00210548FEF7E3FBBDE8104000218F
:1023C0000248FEF708BC0000005400402C0000202A
:1023D000EC9C901010B5A2B0012000900E906846C1
:1023E000FEF7CAFE0D4C0C480C2120604FF4E13082
:1023F00060600020A060E060C4E90401A061E061C9
:10240000206260622046FFF7F8FC2068016841F016
:102410002001016022B010BD00380140780000208A
:10242000FEE77047704700002DE9F041444C054637
:102430008846E0680026810728680DD0E16801F031
:102440000301814216D1A8B1E0686968C0F30210A7
:10245000401C88420ED120E0012804D0022805D07B
:10246000032807D108E02168890701E021684905B0
:10247000002907DB01265FE02168890302D4216877
:102480004903F5E7E1686A686FF00F0321F0730113
:1024900003EB021211430143E160206820F08060E9
:1024A0002060FEF767FB074605E000BFFEF762FB12
:1024B000C01B022837D820680001F7D4B8F1000FFC
:1024C00018D0B8F1010F1ED0287D4FF07E41400892
:1024D00001EB4060A96840EA01202169194A1140D6
:1024E00008432061206840F080602060FEF742FBD6
:1024F00007461AE0A868E9680002090940EA414075
:102500002169114AEBE7288A1049400801EB405045
:10251000A96840EA012021690D4AE0E7FEF72AFB9D
:10252000C01B022801D9032606E020680001F5D56A
:102530002069A969084320613046BDE8F0810000A8
:1025400000100240FF80FFF9FF80FDFF0000E0FF68
:10255000FF809FFF2DE9F0413D4C06468846E0682C
:102560000025810730680DD0E16801F00301814248
:1025700016D1A8B1E0687168C0F30210401C88420F
:102580000ED120E0012804D0022805D0032807D16D
:1025900008E02168890701E021684905002907DB77
:1025A000012551E02168890302D421684903F5E738
:1025B000E16872686FF00F0321F0730103EB021200
:1025C00011430143E160206820F080502060FEF755
:1025D000D1FA074605E000BFFEF7CCFAC01B02287F
:1025E00029D820688000F7D4B8F1000F15D0307CCE
:1025F0004FF07E41400801EB4060B16840EA0120A5
:102600006169144A114008436061206840F08050BD
:102610002060FEF7AFFA07460FE0B068F1680002ED
:10262000090940EA414061690B4AEBE7FEF7A2FA6B
:10263000C01B022801D9032506E020688000F5D5DB
:1026400060697169084360612846BDE8F081000057
:1026500000100240FF80FFF9FF80FDFFF8B51C4D20
:1026600006460024A86DC00002D5FEF77DFD0DE0F2
:10267000A86D40F08050A865A86D00F080500090D3
:10268000FEF772FDA96D21F08051A965B0F5007FBC
:1026900004D0802E07D94FF003040AE0802E08D919
:1026A000A02E01D804E001D1022402E0702E00D156
:1026B00001240848016821F00701214301600068F6
:1026C00000F00700A04201D00120F8BD0020F8BDB5
:1026D00000100240002002407047FEF799BC10B580
:1026E000B8B044216846FDF7A6FD142133A8FDF7D4
:1026F000A2FD882111A8FDF79EFD10200090012069
:10270000002460210690CDE907410221CDE90A109D
:102710000C9028200D900720CDE90E0168461091FD
:10272000FFF798F80F2033900320CDE93404369456
:10273000042133A83794FEF7F7FE38B010BD00002F
:102740000D48016841F4700101600C48016841F0D6
:1027500001010160002181600268094B1A4002609A
:102760008214C260026822F4802202608161024900
:10277000C00380390860704788ED00E00010024017
:10278000FFFFF6EA90F82410C90706D001684A68EE
:10279000836A22F400321A434A6090F824108907B1
:1027A00006D501684A68C36A22F480321A434A6037
:1027B00090F82410490706D501684A68036B22F493
:1027C00080221A434A6090F82410090706D5016850
:1027D0004A68436B22F400421A434A6090F824107E
:1027E000C90606D501688A68836B22F480521A43B1
:1027F0008A6090F82410890606D501688A68C36B40
:1028000022F400521A438A6090F82410490611D528
:1028100001684A68036C22F480121A434A60016C12
:10282000B1F5801F06D101684A68436C22F4C002EA
:102830001A434A6090F82410090606D501684A68D0
:10284000806C22F4002202434A607047F8B50026EB
:102850000446C667FEF78EF90546206800686FF0EB
:102860007E47000708D52B4600224FF40011204672
:10287000009700F061F960B92068006840070AD548
:102880002B4600224FF480012046009700F054F9B7
:1028900008B10320F8BD20206067A06784F870604D
:1028A0000020F8BD2DE9F0410546016880682B69DC
:1028B000EC6918436B69002723431843924A0B685D
:1028C000924C234003430B6028684168EB6821F475
:1028D0004051194341602968A869914201D02B6A8F
:1028E00018438B6823F4306303438B60884B29685B
:1028F000884899420DD1D0F8880010F0030006D026
:10290000012868D0022864D0032851D165E0012451
:102910004FE0814B99420BD1D0F8880010F00C00A9
:1029200055D0042857D0082853D00C2840D154E063
:102930007A4B99420BD1D0F8880010F0300046D085
:10294000102848D0202844D0302831D145E0744B9D
:1029500099420BD1D0F8880010F0C00037D0402841
:1029600039D0802835D0C02822D136E06D4B99422D
:102970000ED1D0F8880010F4407028D0B0F5807FD8
:1029800029D0B0F5007F24D0B0F5407F10D124E0ED
:1029900091420DD1D0F8880010F4406017D0B0F506
:1029A000806F18D0B0F5006F13D0B0F5406F14D021
:1029B00010245D4B00264FF40040914245D174B184
:1029C000022C0FD0042C0FD0082C18D10FE00024BB
:1029D000EFE70224EDE70424EBE70824E9E7FEF73C
:1029E000C3FE03E0184602E0FEF7E2FEA8B36A6801
:1029F00002EB4201814202D8B0EB023F01D901272C
:102A00006FE0DFF828815CB1022C0CD0042C13D0CD
:102A1000082CF4D150082105401846F1000105E0CA
:102A2000FEF7A2FE0AE050084149F5E70023FDF752
:102A3000C7FBA0F5407150E0FEF7BAFE6A68010ED0
:102A40000302500818187141F0E7E9694FF6EF7872
:102A500081422FD1092CD2D200E042E0DFE804F01D
:102A600006092005230505052600C8E7FEF77CFEBC
:102A700001E0FEF78BFE4100D5F8040001EB5001A8
:102A8000B1FBF0F080B2A0F110014145B7D84FF68C
:102A9000F0710140C0F3420001432868C16020E0AA
:102AA00024496868EAE7FEF783FEE4E74FF48031E3
:102AB0006868E3E7092CA2D2DFE804F006091805EC
:102AC0001E05050520009AE7FEF74EFE16E0FEF70C
:102AD0005DFE13E080B2A0F1100141458FD8296856
:102AE000C8602E6638466E66BDE8F081686803EB04
:102AF0005001B1FBF0F0EDE7FEF75AFE696800EB1C
:102B00005100B0FBF1F0E5E700800040F369FFEF12
:102B100000380140001002400044004000480040DE
:102B2000004C0040005000400024F400FFFC0F0067
:102B3000000024F40048E8012DE9F0479A461746C2
:102B40000E4604464FF000094FF02008089D39E07A
:102B5000681C37D0FEF70EF8A0EB0A00A84222D876
:102B60000DB32068016849072CD5C069C043000532
:102B700028D421684FF4006008622068016821F4BD
:102B8000D07101602068816821F001018160C4F882
:102B90007480C4F87880C4F87C8000BF84F870909A
:102BA0000320BDE8F0872068016821F4D07101603E
:102BB0002068816821F001018160C4F87480C4F844
:102BC0007880EBE72068C06936EA000004D0002076
:102BD000B842BDD00020E4E70120F9E7FEE700009D
:102BE0000FB4054B10B503A9044A029800F002F98E
:102BF00010BC5DF814FB0000053800082800002018
:102C00000FB4084B10B504A902AA039800F0F2F81B
:102C1000044602A9002000F087FC204610BC5DF8A5
:102C200014FB0000293500080907090E002804DB01
:102C300000F1E02080F80014704700F00F0000F170
:102C4000E02080F8141D704702E008C8121F08C178
:102C5000002AFAD170477047002001E001C1121F1D
:102C6000002AFBD1704700002DE9FF5F82B00021F0
:102C7000DDE90430020DDDF840B0034318D044F61E
:102C80001050A2F2FF3242431514119801281FD0B0
:102C9000A5EB0B00401C5FEA000A4FF000064E4F08
:102CA000DFF83891B046504615D5CAF1000413E05C
:102CB000119801244AA3012801D16FEA0B0102985F
:102CC000119AC0E90031C0E9024206B000F08EB8A6
:102CD000CBF10000DFE704460021404A491842EBEF
:102CE0000450CDE9001012E0E00707D032463B4621
:102CF00040464946FDF7A8FB8046894632463B469A
:102D000010461946FDF7A0FB06460F466410002C3E
:102D1000EAD1DDE90401DDE90023BAF1000F06DAAA
:102D2000FDF792FB42464B46FDF78EFB05E0FDF7B3
:102D300000FC42464B46FDF7FCFB04460E460022D3
:102D4000284BFDF77DFC03D84FF0FF30014607E02C
:102D50000022254B20463146FDF7C7FAFDF758FC07
:102D6000102409E0002C0ADB0A220023FDF728FAD0
:102D7000039B30321A55641E50EA0102F2D1641CE2
:102D8000039AC4F111031444119A012A03D00122B9
:102D900008430DD10AE0084304D000204FF0110B86
:102DA000119072E7A3EB0B056D1E0DE05B4504DD92
:102DB0004FF0000205F1010504E003DA4FF00002D4
:102DC000A5F10105002AECD002981199C0E9023161
:102DD000C0E9004579E70000000014400000F03F22
:102DE000300000000000F0430000E03F30BCBDE8D0
:102DF000C09F00002DE9FF4F95B09B4689460646CF
:102E000000250FE2252877D100242746F84A012122
:102E1000059400E0044316F8013F203B01FA03F05B
:102E20001042F7D130782A2811D06FF02F03307874
:102E3000A0F13002092A16D8059A44F0020402EBE8
:102E4000820203EB42021044761C0590EFE759F82A
:102E5000042B0592002A03DA504244F400540590F2
:102E600044F00204761C30782E2816D116F8010F93
:102E700044F004042A280DD06FF02F023078A0F11E
:102E80003003092B09D807EB870302EB4303C7186C
:102E9000761CF3E759F8047B761C30786C280FD049
:102EA00006DC4C2817D068280DD06A2814D104E01D
:102EB000742810D07A280FD10DE044F400140AE0F1
:102EC00044F4801401E044F440147278824202D148
:102ED00004F58014761C761C307866280BD013DC41
:102EE000582877D009DC002875D04528F6D0462828
:102EF000F4D047281AD19DE118E0632835D0642822
:102F000079D0652812D195E1702873D008DC672844
:102F1000F1D069286FD06E280DD06F2806D1B5E0AA
:102F200073282CD0752875D0782874D05A461799F4
:102F300090476D1C75E1C4F30250022809D00328A4
:102F40000DD0D9F8001004280DD00D6009F1040946
:102F500067E1D9F80010EA17C1E90052F6E7D9F89D
:102F600000100D80F2E70D70F0E719F8041B8DF8E2
:102F7000001000208DF80100EA46012003E059F816
:102F800004AB4FF0FF3061074FF0000102D40DE0B9
:102F900008F101018846B9420FDA8045F8DB1AF8DA
:102FA00008100029F4D108E008F1010188468142A7
:102FB000FADB1AF808100029F6D105985B46A0EB59
:102FC000080721463846179A00F097FA284400EB84
:102FD000080507E04DE029E10DE01AF8010B5A461B
:102FE00017999047B8F10108F7D25B462146384659
:102FF000179A13E142E00A220092C4F302524FF002
:10300000000A022A08D059F804CB032A4FEAEC71CF
:103010000AD00DE029E02AE009F1070121F00702BA
:10302000F2E802C1914609E00FFA8CFC4FEAEC711C
:10303000042A03D14FFA8CFC4FEAEC71002907DA1D
:103040000A460021DCF1000C61EB02012D2202E0B6
:10305000220504D52B228DF80420012203E0E2078B
:1030600001D02022F7E7904659E00A2102E0102221
:103070000DE010214FF0000A00910BE010224FF0FC
:10308000000A44F004040827009203E008224FF0ED
:10309000000A0092C4F30252022A05D059F804CB68
:1030A0000021032A08D009E009F1070121F00702F5
:1030B000F2E802C1914605E01FFA8CFC042A01D116
:1030C0000CF0FF0C4FF00008220728D5702806D01E
:1030D000009B83F0100353EA0A0305D00EE0402260
:1030E0008DF80420012208E05CEA010206D03022BB
:1030F0008DF804208DF8050002229046009B83F095
:10310000080353EA0A030AD15CEA010201D162070B
:1031100005D530228DF804204FF001087F1E582875
:1031200004D034A003900EA802900DE036A0F9E779
:1031300053466046009AFDF743F884460398825C44
:103140000298401E029002705CEA0100F0D10298E1
:1031500006A9081A00F1200A600702D524F4803479
:1031600000E00127574502DDA7EB0A0000E0002040
:1031700000EB0A01009005984144401A0590E003D5
:1031800006D45B462146179A059800F0B6F9054427
:10319000002706E001A85A46C05D179990476D1CAC
:1031A0007F1C4745F6DBE0030CD55B462146179AAA
:1031B000059800F0A2F9054404E030205A4617991A
:1031C00090476D1C0099481E00900029F5DC08E02E
:1031D000029802995A460078491C02911799904723
:1031E0006D1CBAF10001AAF1010AF1DC65E10000F1
:1031F00009280100303132333435363738396162CD
:103200006364656600000000303132333435363790
:1032100038394142434445460000000000F05BF964
:103220000544761C307800287FF4ECAD19B02846B0
:1032300000F04EB9620700D4062709F1070222F018
:10324000070CFCE80223E14603F000485FEA080CA3
:1032500002D00FF2702C0DE05FEA045C02D50FF291
:10326000682C07E05FEAC47C02D00FF2602C01E01A
:10327000AFF2700C4FF0FF3823F00043CDF850C090
:1032800065280CD006DC452809D046281DD04728E3
:103290003DD13DE0662818D067287ED138E0002176
:1032A000112F01DB112000E0781CCDE9000106A9F7
:1032B0000EA8FFF7D9FCDDE90F010E9A039100215A
:1032C000009207F1010A04914DE04FF00040009791
:1032D000CDE9011006A90EA8FFF7C6FCDDE90F0233
:1032E00003920E9B11990022DDF80CA0009304922A
:1032F00011B9791C00EB010AB7EB0A0004D4C0F144
:10330000FF3007F1010A0490AAEB0700019044E0A6
:10331000012F00DA01270021112F01DD112000E02B
:103320003846CDE9000106A90EA8FFF79DFCDDE9AE
:103330000F010E9A0391002104910092BA462107D1
:103340000CD40399514500DA8A46BAF1010F05DD24
:10335000009AAAF10101515C302908D0B84202DA82
:1033600010F1040F06DA0121CDE9011015E0AAF1F0
:103370000101E9E7002805DC049901440491AAEB66
:10338000000102E0411C514500DD8A460499401AC3
:10339000401C01904FF000400290200704D4019897
:1033A000504501DBCDF8048000208DF84F000298D5
:1033B0000DF14F07B0F1004F25D02B200E90029851
:1033C0004FF0020800280CDA404202902D200E90A7
:1033D00007E00A210298FCF753FF3031029007F80A
:1033E000011DB8F10001A8F10108F2DC02980028E3
:1033F000EFD1791E0E980870307800F0200040F070
:10340000450007F8020D12A8C01B00F10708149828
:10341000007800B1012000EB0A01019801EBE07196
:1034200005984144401A401E0590E00306D45B46CF
:103430002146179A059800F060F805441498007822
:1034400018B15A46179990476D1CE00324D55B4686
:103450002146179A059800F050F805441CE004989E
:10346000002807DBDDE90301884203DD0098405CAA
:10347000179901E0179930205A469047049805F1B2
:103480000105401C04900198401E019004D12E209B
:103490005A46179990476D1CBAF10001AAF1010A2A
:1034A000DDDC05E017F8010B5A46179990476D1CB3
:1034B000B8F10001A8F10108F4DC5B462146179A37
:1034C0000598ABE62D0000002B0000002000000056
:1034D00030BCBDE8C08F2DE9F041044600251E46F2
:1034E0001746880404D405E039462020B0476D1CF7
:1034F000641EF9D52846BDE8F0812DE9F041044667
:1035000000251E469046C80301D5302700E020273D
:10351000880404D505E041463846B0476D1C641E5A
:10352000F9D52846BDE8F0810A68531C0B6010707D
:10353000704700002DE9F04F894885B08749016048
:10354000884941608849894C81604FF0000B84F8BC
:1035500000B0214600F083F920786A2800D0FEE709
:1035600083A0FFF73DFB01217D4800F02DFA7F4944
:103570007B48491C00F01BFA60780028F7D1012134
:10358000774800F055F90121754800F0A8FA0121AB
:10359000734800F041FA0121714800F0D3F900218D
:1035A0006F4800F067FA06216D4800F0E2F901214A
:1035B0006B4800F048FA1121694800F072FAA8211E
:1035C000674800F077F9002540F6B830FDF7FEF8BF
:1035D00004A9634800F00FFA9DF81000C00742D01C
:1035E0006249C4F808B0A4F80CB008315C4800F097
:1035F00015F95E4E0836B6F9000000F041F9DFF823
:103600008CA18AED000AB6F9020000F039F98AEDC2
:10361000010AB6F9040000F033F98AED020A10EE4F
:10362000100AFCF71AFE80468946DAF80400FCF717
:1036300014FE06460F46DAF80000FCF70EFE41ECD9
:10364000100B8DE8C00353EC102B51A10AF11800A8
:10365000FFF7D6FA0AF11800FCF7F8FD81B20AF17B
:10366000180000F0EFFB9DF81000800744D53F499B
:10367000C4F80EB0A4F812B00E31394800F0D3F8F7
:103680003A4E0E36B6F9000000F0EEF8DFF8FCA076
:103690000AF10C0A8AED000AB6F9020000F0E4F81B
:1036A0008AED010AB6F9040000F0DEF88AED020A9C
:1036B00010EE100AFCF7D1FD80468946DAF80400C6
:1036C000FCF7CBFD06460F46DAF80000FCF7C5FD17
:1036D00041EC100B8DE8C00353EC102B36A10AF11E
:1036E0000C00FFF78DFA0AF10C00FCF7AFFD81B278
:1036F0000AF10C0000F0A6FB9DF81000400724D54D
:103700001A49A4F802B0891C154800F079F9174845
:10371000801CB0F9000000F0BFF884ED010A10EE43
:10372000100AFCF79AFD41EC100B184853EC102BD3
:103730002BA11830FFF764FA14481830FCF786FD07
:1037400081B21248183000F07DFB6D1CEDB2022DE5
:10375000FFF43AAF05B000F051B80000593D000841
:10376000F8040020353D00082C0000201400002043
:1037700046696E64207468652072696768742064A5
:1037800065766963652049440D0A0000F800002051
:10379000416363656C65726174696F6E205B6D6710
:1037A0005D3A25342E32660925342E3266092534D9
:1037B0002E32660D0A000000416E67756C61722042
:1037C00072617465205B6D6470735D3A25342E32CE
:1037D000660925342E32660925342E32660D0A001C
:1037E00054656D7065726174757265205B646567A0
:1037F000435D3A25362E32660D0A000030BCBDE826
:10380000C08F000013B54FF47A7301226946024855
:10381000FEF76CFB00981CBD7800002006230A46CA
:10382000282100F0BDB806230A46222100F0B8B8CE
:1038300038B50C46054601236A46122100F0B0F85F
:1038400000280BD19DF80000012364F386108DF849
:1038500000006A461221284600F0D7F838BD01233F
:103860000A460F2100F09CB800EE100ADFED030AB3
:10387000B8EEC00A20EE200A7047000000008C421B
:1038800000EE100ADFED030AB8EEC00A20EE200AAF
:103890007047000023DB793D00EE100A9FED041A0B
:1038A000F8EEC00AB3EE090A00EE810A7047000084
:1038B0000000803B3EB50C460546012302AA1621B6
:1038C00000F06EF800283CD19DF80800210961F352
:1038D0000510E10961F386108DF80800012302AAA2
:1038E0001621284600F091F800282AD1012301AAC8
:1038F0001521284600F054F8002822D19DF8040034
:10390000012364F301008DF8040001AA1521284663
:1039100000F07BF8002814D101236A4613212846C1
:1039200000F03EF800280CD19DF80000E10861F39A
:1039300041008DF8000001236A461321284600F05B
:1039400064F83EBD38B50C46054601236A46112190
:1039500000F026F800280BD19DF80000012364F345
:1039600007108DF800006A461121284600F04DF836
:1039700038BD38B50C46054601236A46112100F0D2
:103980000FF800280BD19DF80000012364F34300D9
:103990008DF800006A461121284600F036F838BD3F
:1039A00030B4D0E901542046AC4630BC604738B54D
:1039B0000C4601236A461221FFF7F2FF9DF8001022
:1039C00001F00101217038BD38B50C4605460123D0
:1039D0006A461221FFF7E4FF00280BD19DF8000092
:1039E000012364F300008DF800006A461221284686
:1039F00000F00BF838BD01230A461E21FFF7D0BFA7
:103A000002230A462021FFF7CBBF30B48468056843
:103A10002046AC4630BC604738B50C46054601230D
:103A20006A461021FFF7BCFF00280BD19DF800006B
:103A3000012364F307108DF800006A461021284620
:103A4000FFF7E3FF38BD38B50C46054601236A464B
:103A50001021FFF7A5FF00280BD19DF800000123DE
:103A600064F300008DF800006A4610212846FFF735
:103A7000CCFF38BD38B50C46054601236A461021F7
:103A8000FFF78EFF00280BD19DF80000012364F39F
:103A900083008DF800006A4610212846FFF7B5FF25
:103AA00038BD38B50C46054601236A461721FFF795
:103AB00077FF002812D19DF80000210961F3C300AF
:103AC00064F3461020F0040040F080008DF8000000
:103AD00001236A4617212846FFF797FF38BD38B5FE
:103AE0000C46054601236A461521FFF759FF0028B9
:103AF0000BD19DF80000012364F304108DF8000041
:103B00006A4615212846FFF780FF38BD9EB0FDF7B5
:103B100087FAFEF7E4FDFEF78DFB0A20FCF756FE60
:103B2000FEF758FC6D4F44F2042601223146384618
:103B3000FDF71BF86AA0FFF753F80A20FCF746FED2
:103B4000FEF726FCFFF7F6FC6E4CE06C40F004003C
:103B5000E064E06C002500F0040005900420009073
:103B60006948CDE9010569466848FCF719FF00225C
:103B700003210820FDF7AAFA0820FDF799FAA06DA5
:103B800040F08050A065A06D00F080500090A068CB
:103B900020F40040A060B3464FF0010A03264FF620
:103BA000FF784FF0020900BF41F28830FCF70EFEAB
:103BB000E06C40F00100E064E06C00F00100009077
:103BC000E06C40F00200E064E06C00F00200009065
:103BD000E06C40F00800E064E06C00F00800009049
:103BE000E06C40F01000E064E06C00F01000009029
:103BF000E06C40F08000E064E06CCDE9126500F01C
:103C00008000009011A9CDF844804FF09040FCF75F
:103C1000C7FE11A93E48FCF7C3FE11A93D48FCF7B9
:103C2000BFFE11A93846FCF7BBFE11A93A48FCF7C4
:103C3000B7FEE06C20F00100E064E06C20F00200D0
:103C4000E064E06C20F00800E064E06C20F010001C
:103C5000E064E06C20F08000E06472B6FEF7A9F842
:103C60000120FDF765FAFEF789F8142117A8FCF783
:103C7000E2FA44216846FCF7DEFA1695A06D40F0A2
:103C80008050A065A06D00F080501C906846FDF744
:103C9000FBFCCDF8289068460095FDF7DBFD16A9E2
:103CA00017A8FDF7D1FCCDE917A617A81699FDF7BF
:103CB0003BFC62B600F082F800F0A2F800F05EF87B
:103CC0001648FEF77DF8FEF785FB01225946384677
:103CD000FCF74BFF12A0FEF783FF65E700100048DA
:103CE0004F70656E207468652032333220616E64D7
:103CF000206C736D3664736C20706F7765720D0A7B
:103D000000000000001002400000211000080048E0
:103D100000040048000C0048001C00487800002007
:103D2000CDCBB3F653746F70206D6F646520320D88
:103D30000A0000003EB5074CA04208D14FF47A7447
:103D40008DE81C000A460123D421FCF7C9FF00209E
:103D50003EBD00002C0000203EB5074CA04208D11B
:103D60004FF47A748DE81C000A460123D421FDF734
:103D70006DF800203EBD00002C00002000B587B08B
:103D800014216846FCF757FA0A48C16C41F010014B
:103D9000C164C06C694600F01000059004200090DA
:103DA000012001900020029003900348FCF7F8FDE9
:103DB00007B000BD001002400010004800B587B0F9
:103DC00014216846FCF737FA0B48C16C41F010012A
:103DD000C164C06C694600F0100005904FF400709B
:103DE0000090012001900020029003900348FCF70E
:103DF000D7FD07B000BD00000010024000100048D1
:103E000000B587B014216846FCF715FA0B48C16C61
:103E100041F01001C164C06C694600F010000590CB
:103E20004FF4804000900120019000200290039008
:103E30000348FCF7B5FD07B000BD000000100240CC
:103E4000001000480A4601464FF47A730148FEF715
:103E50004DB80000780000200000000000000000C5
:103E60000102030406070809A0860100400D0300B3
:103E7000801A060000350C0040420F0080841E00AE
:103E800000093D0000127A000024F40000366E01A3
:103E90000048E801006CDC0200000000010203049D
:103EA000C03E0008000000202C000000482C000844
:103EB000EC3E00082C000020DC080000582C000814
:103EC00010000000010000000000000000093D009B
:103ED00000000000000000000000000000000000E2
:0C3EE000000000000000000000000000D6
:040000050800018965
:00000001FF
